{
  "_format": "hh-sol-artifact-1",
  "contractName": "Membership",
  "sourceName": "contracts/Membership.sol",
  "abi": [
    {
      "inputs": [],
      "stateMutability": "nonpayable",
      "type": "constructor"
    },
    {
      "anonymous": false,
      "inputs": [
        {
          "indexed": true,
          "internalType": "address",
          "name": "owner",
          "type": "address"
        },
        {
          "indexed": true,
          "internalType": "address",
          "name": "approved",
          "type": "address"
        },
        {
          "indexed": true,
          "internalType": "uint256",
          "name": "tokenId",
          "type": "uint256"
        }
      ],
      "name": "Approval",
      "type": "event"
    },
    {
      "anonymous": false,
      "inputs": [
        {
          "indexed": true,
          "internalType": "address",
          "name": "owner",
          "type": "address"
        },
        {
          "indexed": true,
          "internalType": "address",
          "name": "operator",
          "type": "address"
        },
        {
          "indexed": false,
          "internalType": "bool",
          "name": "approved",
          "type": "bool"
        }
      ],
      "name": "ApprovalForAll",
      "type": "event"
    },
    {
      "anonymous": false,
      "inputs": [
        {
          "indexed": true,
          "internalType": "address",
          "name": "previousOwner",
          "type": "address"
        },
        {
          "indexed": true,
          "internalType": "address",
          "name": "newOwner",
          "type": "address"
        }
      ],
      "name": "OwnershipTransferred",
      "type": "event"
    },
    {
      "anonymous": false,
      "inputs": [
        {
          "indexed": true,
          "internalType": "address",
          "name": "from",
          "type": "address"
        },
        {
          "indexed": true,
          "internalType": "address",
          "name": "to",
          "type": "address"
        },
        {
          "indexed": true,
          "internalType": "uint256",
          "name": "tokenId",
          "type": "uint256"
        }
      ],
      "name": "Transfer",
      "type": "event"
    },
    {
      "inputs": [
        {
          "internalType": "address",
          "name": "to",
          "type": "address"
        },
        {
          "internalType": "uint256",
          "name": "tokenId",
          "type": "uint256"
        }
      ],
      "name": "approve",
      "outputs": [],
      "stateMutability": "nonpayable",
      "type": "function"
    },
    {
      "inputs": [
        {
          "internalType": "address",
          "name": "owner",
          "type": "address"
        }
      ],
      "name": "balanceOf",
      "outputs": [
        {
          "internalType": "uint256",
          "name": "",
          "type": "uint256"
        }
      ],
      "stateMutability": "view",
      "type": "function"
    },
    {
      "inputs": [],
      "name": "f",
      "outputs": [
        {
          "internalType": "contract Factory",
          "name": "",
          "type": "address"
        }
      ],
      "stateMutability": "view",
      "type": "function"
    },
    {
      "inputs": [
        {
          "internalType": "uint256",
          "name": "tokenId",
          "type": "uint256"
        }
      ],
      "name": "getApproved",
      "outputs": [
        {
          "internalType": "address",
          "name": "",
          "type": "address"
        }
      ],
      "stateMutability": "view",
      "type": "function"
    },
    {
      "inputs": [
        {
          "internalType": "address",
          "name": "owner",
          "type": "address"
        },
        {
          "internalType": "address",
          "name": "operator",
          "type": "address"
        }
      ],
      "name": "isApprovedForAll",
      "outputs": [
        {
          "internalType": "bool",
          "name": "",
          "type": "bool"
        }
      ],
      "stateMutability": "view",
      "type": "function"
    },
    {
      "inputs": [],
      "name": "maxSupply",
      "outputs": [
        {
          "internalType": "uint256",
          "name": "",
          "type": "uint256"
        }
      ],
      "stateMutability": "view",
      "type": "function"
    },
    {
      "inputs": [],
      "name": "name",
      "outputs": [
        {
          "internalType": "string",
          "name": "",
          "type": "string"
        }
      ],
      "stateMutability": "view",
      "type": "function"
    },
    {
      "inputs": [],
      "name": "owner",
      "outputs": [
        {
          "internalType": "address",
          "name": "",
          "type": "address"
        }
      ],
      "stateMutability": "view",
      "type": "function"
    },
    {
      "inputs": [
        {
          "internalType": "uint256",
          "name": "tokenId",
          "type": "uint256"
        }
      ],
      "name": "ownerOf",
      "outputs": [
        {
          "internalType": "address",
          "name": "",
          "type": "address"
        }
      ],
      "stateMutability": "view",
      "type": "function"
    },
    {
      "inputs": [],
      "name": "renounceOwnership",
      "outputs": [],
      "stateMutability": "nonpayable",
      "type": "function"
    },
    {
      "inputs": [
        {
          "internalType": "address",
          "name": "to",
          "type": "address"
        },
        {
          "internalType": "uint256",
          "name": "_tokenId",
          "type": "uint256"
        },
        {
          "internalType": "string",
          "name": "_uri",
          "type": "string"
        },
        {
          "internalType": "string",
          "name": "_name",
          "type": "string"
        },
        {
          "internalType": "string",
          "name": "_symbol",
          "type": "string"
        },
        {
          "internalType": "uint256",
          "name": "_tokenAmount",
          "type": "uint256"
        }
      ],
      "name": "safeMint",
      "outputs": [],
      "stateMutability": "payable",
      "type": "function"
    },
    {
      "inputs": [
        {
          "internalType": "address",
          "name": "from",
          "type": "address"
        },
        {
          "internalType": "address",
          "name": "to",
          "type": "address"
        },
        {
          "internalType": "uint256",
          "name": "tokenId",
          "type": "uint256"
        }
      ],
      "name": "safeTransferFrom",
      "outputs": [],
      "stateMutability": "nonpayable",
      "type": "function"
    },
    {
      "inputs": [
        {
          "internalType": "address",
          "name": "from",
          "type": "address"
        },
        {
          "internalType": "address",
          "name": "to",
          "type": "address"
        },
        {
          "internalType": "uint256",
          "name": "tokenId",
          "type": "uint256"
        },
        {
          "internalType": "bytes",
          "name": "_data",
          "type": "bytes"
        }
      ],
      "name": "safeTransferFrom",
      "outputs": [],
      "stateMutability": "nonpayable",
      "type": "function"
    },
    {
      "inputs": [
        {
          "internalType": "address",
          "name": "operator",
          "type": "address"
        },
        {
          "internalType": "bool",
          "name": "approved",
          "type": "bool"
        }
      ],
      "name": "setApprovalForAll",
      "outputs": [],
      "stateMutability": "nonpayable",
      "type": "function"
    },
    {
      "inputs": [
        {
          "internalType": "bytes4",
          "name": "interfaceId",
          "type": "bytes4"
        }
      ],
      "name": "supportsInterface",
      "outputs": [
        {
          "internalType": "bool",
          "name": "",
          "type": "bool"
        }
      ],
      "stateMutability": "view",
      "type": "function"
    },
    {
      "inputs": [],
      "name": "symbol",
      "outputs": [
        {
          "internalType": "string",
          "name": "",
          "type": "string"
        }
      ],
      "stateMutability": "view",
      "type": "function"
    },
    {
      "inputs": [
        {
          "internalType": "uint256",
          "name": "tokenId",
          "type": "uint256"
        }
      ],
      "name": "tokenURI",
      "outputs": [
        {
          "internalType": "string",
          "name": "",
          "type": "string"
        }
      ],
      "stateMutability": "view",
      "type": "function"
    },
    {
      "inputs": [
        {
          "internalType": "address",
          "name": "from",
          "type": "address"
        },
        {
          "internalType": "address",
          "name": "to",
          "type": "address"
        },
        {
          "internalType": "uint256",
          "name": "tokenId",
          "type": "uint256"
        }
      ],
      "name": "transferFrom",
      "outputs": [],
      "stateMutability": "nonpayable",
      "type": "function"
    },
    {
      "inputs": [
        {
          "internalType": "address",
          "name": "newOwner",
          "type": "address"
        }
      ],
      "name": "transferOwnership",
      "outputs": [],
      "stateMutability": "nonpayable",
      "type": "function"
    }
  ],
  "bytecode": "0x6080604052662386f26fc100006009553480156200001c57600080fd5b506040518060400160405280600881526020017f536861446f6e6e610000000000000000000000000000000000000000000000008152506040518060400160405280600381526020017f53444c00000000000000000000000000000000000000000000000000000000008152508160009080519060200190620000a1929190620001b1565b508060019080519060200190620000ba929190620001b1565b505050620000dd620000d1620000e360201b60201c565b620000eb60201b60201c565b620002c6565b600033905090565b6000600760009054906101000a900473ffffffffffffffffffffffffffffffffffffffff16905081600760006101000a81548173ffffffffffffffffffffffffffffffffffffffff021916908373ffffffffffffffffffffffffffffffffffffffff1602179055508173ffffffffffffffffffffffffffffffffffffffff168173ffffffffffffffffffffffffffffffffffffffff167f8be0079c531659141344cd1fd0a4f28419497f9722a3daafe3b4186f6b6457e060405160405180910390a35050565b828054620001bf9062000261565b90600052602060002090601f016020900481019282620001e357600085556200022f565b82601f10620001fe57805160ff19168380011785556200022f565b828001600101855582156200022f579182015b828111156200022e57825182559160200191906001019062000211565b5b5090506200023e919062000242565b5090565b5b808211156200025d57600081600090555060010162000243565b5090565b600060028204905060018216806200027a57607f821691505b6020821081141562000291576200029062000297565b5b50919050565b7f4e487b7100000000000000000000000000000000000000000000000000000000600052602260045260246000fd5b61334e80620002d66000396000f3fe6080604052600436106101145760003560e01c806370a08231116100a0578063b88d4fde11610064578063b88d4fde14610390578063c87b56dd146103b9578063d5abeb01146103f6578063e985e9c514610421578063f2fde38b1461045e57610114565b806370a08231146102bd578063715018a6146102fa5780638da5cb5b1461031157806395d89b411461033c578063a22cb4651461036757610114565b8063180fd0f0116100e7578063180fd0f0146101e757806323b872dd1461020357806326121ff01461022c57806342842e0e146102575780636352211e1461028057610114565b806301ffc9a71461011957806306fdde0314610156578063081812fc14610181578063095ea7b3146101be575b600080fd5b34801561012557600080fd5b50610140600480360381019061013b919061225c565b610487565b60405161014d919061270a565b60405180910390f35b34801561016257600080fd5b5061016b610499565b6040516101789190612740565b60405180910390f35b34801561018d57600080fd5b506101a860048036038101906101a391906122ae565b61052b565b6040516101b59190612650565b60405180910390f35b3480156101ca57600080fd5b506101e560048036038101906101e0919061214f565b6105b0565b005b61020160048036038101906101fc919061218b565b6106c8565b005b34801561020f57600080fd5b5061022a60048036038101906102259190612049565b6107f3565b005b34801561023857600080fd5b50610241610853565b60405161024e9190612725565b60405180910390f35b34801561026357600080fd5b5061027e60048036038101906102799190612049565b610879565b005b34801561028c57600080fd5b506102a760048036038101906102a291906122ae565b610899565b6040516102b49190612650565b60405180910390f35b3480156102c957600080fd5b506102e460048036038101906102df9190611fe4565b61094b565b6040516102f191906129a2565b60405180910390f35b34801561030657600080fd5b5061030f610a03565b005b34801561031d57600080fd5b50610326610a8b565b6040516103339190612650565b60405180910390f35b34801561034857600080fd5b50610351610ab5565b60405161035e9190612740565b60405180910390f35b34801561037357600080fd5b5061038e60048036038101906103899190612113565b610b47565b005b34801561039c57600080fd5b506103b760048036038101906103b29190612098565b610b5d565b005b3480156103c557600080fd5b506103e060048036038101906103db91906122ae565b610bbf565b6040516103ed9190612740565b60405180910390f35b34801561040257600080fd5b5061040b610bd1565b60405161041891906129a2565b60405180910390f35b34801561042d57600080fd5b506104486004803603810190610443919061200d565b610bd7565b604051610455919061270a565b60405180910390f35b34801561046a57600080fd5b5061048560048036038101906104809190611fe4565b610c6b565b005b600061049282610d63565b9050919050565b6060600080546104a890612c1c565b80601f01602080910402602001604051908101604052809291908181526020018280546104d490612c1c565b80156105215780601f106104f657610100808354040283529160200191610521565b820191906000526020600020905b81548152906001019060200180831161050457829003601f168201915b5050505050905090565b600061053682610e45565b610575576040517f08c379a000000000000000000000000000000000000000000000000000000000815260040161056c90612902565b60405180910390fd5b6004600083815260200190815260200160002060009054906101000a900473ffffffffffffffffffffffffffffffffffffffff169050919050565b60006105bb82610899565b90508073ffffffffffffffffffffffffffffffffffffffff168373ffffffffffffffffffffffffffffffffffffffff16141561062c576040517f08c379a000000000000000000000000000000000000000000000000000000000815260040161062390612962565b60405180910390fd5b8073ffffffffffffffffffffffffffffffffffffffff1661064b610eb1565b73ffffffffffffffffffffffffffffffffffffffff16148061067a575061067981610674610eb1565b610bd7565b5b6106b9576040517f08c379a00000000000000000000000000000000000000000000000000000000081526004016106b090612842565b60405180910390fd5b6106c38383610eb9565b505050565b6106d0610eb1565b73ffffffffffffffffffffffffffffffffffffffff166106ee610a8b565b73ffffffffffffffffffffffffffffffffffffffff1614610744576040517f08c379a000000000000000000000000000000000000000000000000000000000815260040161073b90612922565b60405180910390fd5b61074e8686610f72565b6107588585610f90565b600860009054906101000a900473ffffffffffffffffffffffffffffffffffffffff1673ffffffffffffffffffffffffffffffffffffffff1663d831da63878585856040518563ffffffff1660e01b81526004016107b994939291906126b7565b600060405180830381600087803b1580156107d357600080fd5b505af11580156107e7573d6000803e3d6000fd5b50505050505050505050565b6108046107fe610eb1565b82611004565b610843576040517f08c379a000000000000000000000000000000000000000000000000000000000815260040161083a90612982565b60405180910390fd5b61084e8383836110e2565b505050565b600860009054906101000a900473ffffffffffffffffffffffffffffffffffffffff1681565b61089483838360405180602001604052806000815250610b5d565b505050565b6000806002600084815260200190815260200160002060009054906101000a900473ffffffffffffffffffffffffffffffffffffffff169050600073ffffffffffffffffffffffffffffffffffffffff168173ffffffffffffffffffffffffffffffffffffffff161415610942576040517f08c379a000000000000000000000000000000000000000000000000000000000815260040161093990612882565b60405180910390fd5b80915050919050565b60008073ffffffffffffffffffffffffffffffffffffffff168273ffffffffffffffffffffffffffffffffffffffff1614156109bc576040517f08c379a00000000000000000000000000000000000000000000000000000000081526004016109b390612862565b60405180910390fd5b600360008373ffffffffffffffffffffffffffffffffffffffff1673ffffffffffffffffffffffffffffffffffffffff168152602001908152602001600020549050919050565b610a0b610eb1565b73ffffffffffffffffffffffffffffffffffffffff16610a29610a8b565b73ffffffffffffffffffffffffffffffffffffffff1614610a7f576040517f08c379a0000000000000000000000000000000000000000000000000000000008152600401610a7690612922565b60405180910390fd5b610a896000611349565b565b6000600760009054906101000a900473ffffffffffffffffffffffffffffffffffffffff16905090565b606060018054610ac490612c1c565b80601f0160208091040260200160405190810160405280929190818152602001828054610af090612c1c565b8015610b3d5780601f10610b1257610100808354040283529160200191610b3d565b820191906000526020600020905b815481529060010190602001808311610b2057829003601f168201915b5050505050905090565b610b59610b52610eb1565b838361140f565b5050565b610b6e610b68610eb1565b83611004565b610bad576040517f08c379a0000000000000000000000000000000000000000000000000000000008152600401610ba490612982565b60405180910390fd5b610bb98484848461157c565b50505050565b6060610bca826115d8565b9050919050565b61271081565b6000600560008473ffffffffffffffffffffffffffffffffffffffff1673ffffffffffffffffffffffffffffffffffffffff16815260200190815260200160002060008373ffffffffffffffffffffffffffffffffffffffff1673ffffffffffffffffffffffffffffffffffffffff16815260200190815260200160002060009054906101000a900460ff16905092915050565b610c73610eb1565b73ffffffffffffffffffffffffffffffffffffffff16610c91610a8b565b73ffffffffffffffffffffffffffffffffffffffff1614610ce7576040517f08c379a0000000000000000000000000000000000000000000000000000000008152600401610cde90612922565b60405180910390fd5b600073ffffffffffffffffffffffffffffffffffffffff168173ffffffffffffffffffffffffffffffffffffffff161415610d57576040517f08c379a0000000000000000000000000000000000000000000000000000000008152600401610d4e90612782565b60405180910390fd5b610d6081611349565b50565b60007f80ac58cd000000000000000000000000000000000000000000000000000000007bffffffffffffffffffffffffffffffffffffffffffffffffffffffff1916827bffffffffffffffffffffffffffffffffffffffffffffffffffffffff19161480610e2e57507f5b5e139f000000000000000000000000000000000000000000000000000000007bffffffffffffffffffffffffffffffffffffffffffffffffffffffff1916827bffffffffffffffffffffffffffffffffffffffffffffffffffffffff1916145b80610e3e5750610e3d8261172a565b5b9050919050565b60008073ffffffffffffffffffffffffffffffffffffffff166002600084815260200190815260200160002060009054906101000a900473ffffffffffffffffffffffffffffffffffffffff1673ffffffffffffffffffffffffffffffffffffffff1614159050919050565b600033905090565b816004600083815260200190815260200160002060006101000a81548173ffffffffffffffffffffffffffffffffffffffff021916908373ffffffffffffffffffffffffffffffffffffffff160217905550808273ffffffffffffffffffffffffffffffffffffffff16610f2c83610899565b73ffffffffffffffffffffffffffffffffffffffff167f8c5be1e5ebec7d5bd14f71427d1e84f3dd0314c0f7b2291e5b200ac8c7c3b92560405160405180910390a45050565b610f8c828260405180602001604052806000815250611794565b5050565b610f9982610e45565b610fd8576040517f08c379a0000000000000000000000000000000000000000000000000000000008152600401610fcf906128a2565b60405180910390fd5b80600660008481526020019081526020016000209080519060200190610fff929190611e08565b505050565b600061100f82610e45565b61104e576040517f08c379a000000000000000000000000000000000000000000000000000000000815260040161104590612822565b60405180910390fd5b600061105983610899565b90508073ffffffffffffffffffffffffffffffffffffffff168473ffffffffffffffffffffffffffffffffffffffff16148061109b575061109a8185610bd7565b5b806110d957508373ffffffffffffffffffffffffffffffffffffffff166110c18461052b565b73ffffffffffffffffffffffffffffffffffffffff16145b91505092915050565b8273ffffffffffffffffffffffffffffffffffffffff1661110282610899565b73ffffffffffffffffffffffffffffffffffffffff1614611158576040517f08c379a000000000000000000000000000000000000000000000000000000000815260040161114f906127a2565b60405180910390fd5b600073ffffffffffffffffffffffffffffffffffffffff168273ffffffffffffffffffffffffffffffffffffffff1614156111c8576040517f08c379a00000000000000000000000000000000000000000000000000000000081526004016111bf906127e2565b60405180910390fd5b6111d38383836117ef565b6111de600082610eb9565b6001600360008573ffffffffffffffffffffffffffffffffffffffff1673ffffffffffffffffffffffffffffffffffffffff168152602001908152602001600020600082825461122e9190612b0e565b925050819055506001600360008473ffffffffffffffffffffffffffffffffffffffff1673ffffffffffffffffffffffffffffffffffffffff16815260200190815260200160002060008282546112859190612a87565b92505081905550816002600083815260200190815260200160002060006101000a81548173ffffffffffffffffffffffffffffffffffffffff021916908373ffffffffffffffffffffffffffffffffffffffff160217905550808273ffffffffffffffffffffffffffffffffffffffff168473ffffffffffffffffffffffffffffffffffffffff167fddf252ad1be2c89b69c2b068fc378daa952ba7f163c4a11628f55a4df523b3ef60405160405180910390a46113448383836117ff565b505050565b6000600760009054906101000a900473ffffffffffffffffffffffffffffffffffffffff16905081600760006101000a81548173ffffffffffffffffffffffffffffffffffffffff021916908373ffffffffffffffffffffffffffffffffffffffff1602179055508173ffffffffffffffffffffffffffffffffffffffff168173ffffffffffffffffffffffffffffffffffffffff167f8be0079c531659141344cd1fd0a4f28419497f9722a3daafe3b4186f6b6457e060405160405180910390a35050565b8173ffffffffffffffffffffffffffffffffffffffff168373ffffffffffffffffffffffffffffffffffffffff16141561147e576040517f08c379a000000000000000000000000000000000000000000000000000000000815260040161147590612802565b60405180910390fd5b80600560008573ffffffffffffffffffffffffffffffffffffffff1673ffffffffffffffffffffffffffffffffffffffff16815260200190815260200160002060008473ffffffffffffffffffffffffffffffffffffffff1673ffffffffffffffffffffffffffffffffffffffff16815260200190815260200160002060006101000a81548160ff0219169083151502179055508173ffffffffffffffffffffffffffffffffffffffff168373ffffffffffffffffffffffffffffffffffffffff167f17307eab39ab6107e8899845ad3d59bd9653f200f220920489ca2b5937696c318360405161156f919061270a565b60405180910390a3505050565b6115878484846110e2565b61159384848484611804565b6115d2576040517f08c379a00000000000000000000000000000000000000000000000000000000081526004016115c990612762565b60405180910390fd5b50505050565b60606115e382610e45565b611622576040517f08c379a0000000000000000000000000000000000000000000000000000000008152600401611619906128e2565b60405180910390fd5b600060066000848152602001908152602001600020805461164290612c1c565b80601f016020809104026020016040519081016040528092919081815260200182805461166e90612c1c565b80156116bb5780601f10611690576101008083540402835291602001916116bb565b820191906000526020600020905b81548152906001019060200180831161169e57829003601f168201915b5050505050905060006116cc61199b565b90506000815114156116e2578192505050611725565b6000825111156117175780826040516020016116ff92919061262c565b60405160208183030381529060405292505050611725565b611720846119b2565b925050505b919050565b60007f01ffc9a7000000000000000000000000000000000000000000000000000000007bffffffffffffffffffffffffffffffffffffffffffffffffffffffff1916827bffffffffffffffffffffffffffffffffffffffffffffffffffffffff1916149050919050565b61179e8383611a59565b6117ab6000848484611804565b6117ea576040517f08c379a00000000000000000000000000000000000000000000000000000000081526004016117e190612762565b60405180910390fd5b505050565b6117fa838383611c33565b505050565b505050565b60006118258473ffffffffffffffffffffffffffffffffffffffff16611c38565b1561198e578373ffffffffffffffffffffffffffffffffffffffff1663150b7a0261184e610eb1565b8786866040518563ffffffff1660e01b8152600401611870949392919061266b565b602060405180830381600087803b15801561188a57600080fd5b505af19250505080156118bb57506040513d601f19601f820116820180604052508101906118b89190612285565b60015b61193e573d80600081146118eb576040519150601f19603f3d011682016040523d82523d6000602084013e6118f0565b606091505b50600081511415611936576040517f08c379a000000000000000000000000000000000000000000000000000000000815260040161192d90612762565b60405180910390fd5b805181602001fd5b63150b7a0260e01b7bffffffffffffffffffffffffffffffffffffffffffffffffffffffff1916817bffffffffffffffffffffffffffffffffffffffffffffffffffffffff191614915050611993565b600190505b949350505050565b606060405180602001604052806000815250905090565b60606119bd82610e45565b6119fc576040517f08c379a00000000000000000000000000000000000000000000000000000000081526004016119f390612942565b60405180910390fd5b6000611a0661199b565b90506000815111611a265760405180602001604052806000815250611a51565b80611a3084611c5b565b604051602001611a4192919061262c565b6040516020818303038152906040525b915050919050565b600073ffffffffffffffffffffffffffffffffffffffff168273ffffffffffffffffffffffffffffffffffffffff161415611ac9576040517f08c379a0000000000000000000000000000000000000000000000000000000008152600401611ac0906128c2565b60405180910390fd5b611ad281610e45565b15611b12576040517f08c379a0000000000000000000000000000000000000000000000000000000008152600401611b09906127c2565b60405180910390fd5b611b1e600083836117ef565b6001600360008473ffffffffffffffffffffffffffffffffffffffff1673ffffffffffffffffffffffffffffffffffffffff1681526020019081526020016000206000828254611b6e9190612a87565b92505081905550816002600083815260200190815260200160002060006101000a81548173ffffffffffffffffffffffffffffffffffffffff021916908373ffffffffffffffffffffffffffffffffffffffff160217905550808273ffffffffffffffffffffffffffffffffffffffff16600073ffffffffffffffffffffffffffffffffffffffff167fddf252ad1be2c89b69c2b068fc378daa952ba7f163c4a11628f55a4df523b3ef60405160405180910390a4611c2f600083836117ff565b5050565b505050565b6000808273ffffffffffffffffffffffffffffffffffffffff163b119050919050565b60606000821415611ca3576040518060400160405280600181526020017f30000000000000000000000000000000000000000000000000000000000000008152509050611e03565b600082905060005b60008214611cd5578080611cbe90612c7f565b915050600a82611cce9190612add565b9150611cab565b60008167ffffffffffffffff811115611d17577f4e487b7100000000000000000000000000000000000000000000000000000000600052604160045260246000fd5b6040519080825280601f01601f191660200182016040528015611d495781602001600182028036833780820191505090505b5090505b60008514611dfc57600182611d629190612b0e565b9150600a85611d719190612cc8565b6030611d7d9190612a87565b60f81b818381518110611db9577f4e487b7100000000000000000000000000000000000000000000000000000000600052603260045260246000fd5b60200101907effffffffffffffffffffffffffffffffffffffffffffffffffffffffffffff1916908160001a905350600a85611df59190612add565b9450611d4d565b8093505050505b919050565b828054611e1490612c1c565b90600052602060002090601f016020900481019282611e365760008555611e7d565b82601f10611e4f57805160ff1916838001178555611e7d565b82800160010185558215611e7d579182015b82811115611e7c578251825591602001919060010190611e61565b5b509050611e8a9190611e8e565b5090565b5b80821115611ea7576000816000905550600101611e8f565b5090565b6000611ebe611eb9846129e2565b6129bd565b905082815260208101848484011115611ed657600080fd5b611ee1848285612bda565b509392505050565b6000611efc611ef784612a13565b6129bd565b905082815260208101848484011115611f1457600080fd5b611f1f848285612bda565b509392505050565b600081359050611f36816132bc565b92915050565b600081359050611f4b816132d3565b92915050565b600081359050611f60816132ea565b92915050565b600081519050611f75816132ea565b92915050565b600082601f830112611f8c57600080fd5b8135611f9c848260208601611eab565b91505092915050565b600082601f830112611fb657600080fd5b8135611fc6848260208601611ee9565b91505092915050565b600081359050611fde81613301565b92915050565b600060208284031215611ff657600080fd5b600061200484828501611f27565b91505092915050565b6000806040838503121561202057600080fd5b600061202e85828601611f27565b925050602061203f85828601611f27565b9150509250929050565b60008060006060848603121561205e57600080fd5b600061206c86828701611f27565b935050602061207d86828701611f27565b925050604061208e86828701611fcf565b9150509250925092565b600080600080608085870312156120ae57600080fd5b60006120bc87828801611f27565b94505060206120cd87828801611f27565b93505060406120de87828801611fcf565b925050606085013567ffffffffffffffff8111156120fb57600080fd5b61210787828801611f7b565b91505092959194509250565b6000806040838503121561212657600080fd5b600061213485828601611f27565b925050602061214585828601611f3c565b9150509250929050565b6000806040838503121561216257600080fd5b600061217085828601611f27565b925050602061218185828601611fcf565b9150509250929050565b60008060008060008060c087890312156121a457600080fd5b60006121b289828a01611f27565b96505060206121c389828a01611fcf565b955050604087013567ffffffffffffffff8111156121e057600080fd5b6121ec89828a01611fa5565b945050606087013567ffffffffffffffff81111561220957600080fd5b61221589828a01611fa5565b935050608087013567ffffffffffffffff81111561223257600080fd5b61223e89828a01611fa5565b92505060a061224f89828a01611fcf565b9150509295509295509295565b60006020828403121561226e57600080fd5b600061227c84828501611f51565b91505092915050565b60006020828403121561229757600080fd5b60006122a584828501611f66565b91505092915050565b6000602082840312156122c057600080fd5b60006122ce84828501611fcf565b91505092915050565b6122e081612b42565b82525050565b6122ef81612b54565b82525050565b600061230082612a44565b61230a8185612a5a565b935061231a818560208601612be9565b61232381612db5565b840191505092915050565b61233781612bb6565b82525050565b600061234882612a4f565b6123528185612a6b565b9350612362818560208601612be9565b61236b81612db5565b840191505092915050565b600061238182612a4f565b61238b8185612a7c565b935061239b818560208601612be9565b80840191505092915050565b60006123b4603283612a6b565b91506123bf82612dc6565b604082019050919050565b60006123d7602683612a6b565b91506123e282612e15565b604082019050919050565b60006123fa602583612a6b565b915061240582612e64565b604082019050919050565b600061241d601c83612a6b565b915061242882612eb3565b602082019050919050565b6000612440602483612a6b565b915061244b82612edc565b604082019050919050565b6000612463601983612a6b565b915061246e82612f2b565b602082019050919050565b6000612486602c83612a6b565b915061249182612f54565b604082019050919050565b60006124a9603883612a6b565b91506124b482612fa3565b604082019050919050565b60006124cc602a83612a6b565b91506124d782612ff2565b604082019050919050565b60006124ef602983612a6b565b91506124fa82613041565b604082019050919050565b6000612512602e83612a6b565b915061251d82613090565b604082019050919050565b6000612535602083612a6b565b9150612540826130df565b602082019050919050565b6000612558603183612a6b565b915061256382613108565b604082019050919050565b600061257b602c83612a6b565b915061258682613157565b604082019050919050565b600061259e602083612a6b565b91506125a9826131a6565b602082019050919050565b60006125c1602f83612a6b565b91506125cc826131cf565b604082019050919050565b60006125e4602183612a6b565b91506125ef8261321e565b604082019050919050565b6000612607603183612a6b565b91506126128261326d565b604082019050919050565b61262681612bac565b82525050565b60006126388285612376565b91506126448284612376565b91508190509392505050565b600060208201905061266560008301846122d7565b92915050565b600060808201905061268060008301876122d7565b61268d60208301866122d7565b61269a604083018561261d565b81810360608301526126ac81846122f5565b905095945050505050565b60006080820190506126cc60008301876122d7565b81810360208301526126de818661233d565b905081810360408301526126f2818561233d565b9050612701606083018461261d565b95945050505050565b600060208201905061271f60008301846122e6565b92915050565b600060208201905061273a600083018461232e565b92915050565b6000602082019050818103600083015261275a818461233d565b905092915050565b6000602082019050818103600083015261277b816123a7565b9050919050565b6000602082019050818103600083015261279b816123ca565b9050919050565b600060208201905081810360008301526127bb816123ed565b9050919050565b600060208201905081810360008301526127db81612410565b9050919050565b600060208201905081810360008301526127fb81612433565b9050919050565b6000602082019050818103600083015261281b81612456565b9050919050565b6000602082019050818103600083015261283b81612479565b9050919050565b6000602082019050818103600083015261285b8161249c565b9050919050565b6000602082019050818103600083015261287b816124bf565b9050919050565b6000602082019050818103600083015261289b816124e2565b9050919050565b600060208201905081810360008301526128bb81612505565b9050919050565b600060208201905081810360008301526128db81612528565b9050919050565b600060208201905081810360008301526128fb8161254b565b9050919050565b6000602082019050818103600083015261291b8161256e565b9050919050565b6000602082019050818103600083015261293b81612591565b9050919050565b6000602082019050818103600083015261295b816125b4565b9050919050565b6000602082019050818103600083015261297b816125d7565b9050919050565b6000602082019050818103600083015261299b816125fa565b9050919050565b60006020820190506129b7600083018461261d565b92915050565b60006129c76129d8565b90506129d38282612c4e565b919050565b6000604051905090565b600067ffffffffffffffff8211156129fd576129fc612d86565b5b612a0682612db5565b9050602081019050919050565b600067ffffffffffffffff821115612a2e57612a2d612d86565b5b612a3782612db5565b9050602081019050919050565b600081519050919050565b600081519050919050565b600082825260208201905092915050565b600082825260208201905092915050565b600081905092915050565b6000612a9282612bac565b9150612a9d83612bac565b9250827fffffffffffffffffffffffffffffffffffffffffffffffffffffffffffffffff03821115612ad257612ad1612cf9565b5b828201905092915050565b6000612ae882612bac565b9150612af383612bac565b925082612b0357612b02612d28565b5b828204905092915050565b6000612b1982612bac565b9150612b2483612bac565b925082821015612b3757612b36612cf9565b5b828203905092915050565b6000612b4d82612b8c565b9050919050565b60008115159050919050565b60007fffffffff0000000000000000000000000000000000000000000000000000000082169050919050565b600073ffffffffffffffffffffffffffffffffffffffff82169050919050565b6000819050919050565b6000612bc182612bc8565b9050919050565b6000612bd382612b8c565b9050919050565b82818337600083830152505050565b60005b83811015612c07578082015181840152602081019050612bec565b83811115612c16576000848401525b50505050565b60006002820490506001821680612c3457607f821691505b60208210811415612c4857612c47612d57565b5b50919050565b612c5782612db5565b810181811067ffffffffffffffff82111715612c7657612c75612d86565b5b80604052505050565b6000612c8a82612bac565b91507fffffffffffffffffffffffffffffffffffffffffffffffffffffffffffffffff821415612cbd57612cbc612cf9565b5b600182019050919050565b6000612cd382612bac565b9150612cde83612bac565b925082612cee57612ced612d28565b5b828206905092915050565b7f4e487b7100000000000000000000000000000000000000000000000000000000600052601160045260246000fd5b7f4e487b7100000000000000000000000000000000000000000000000000000000600052601260045260246000fd5b7f4e487b7100000000000000000000000000000000000000000000000000000000600052602260045260246000fd5b7f4e487b7100000000000000000000000000000000000000000000000000000000600052604160045260246000fd5b6000601f19601f8301169050919050565b7f4552433732313a207472616e7366657220746f206e6f6e20455243373231526560008201527f63656976657220696d706c656d656e7465720000000000000000000000000000602082015250565b7f4f776e61626c653a206e6577206f776e657220697320746865207a65726f206160008201527f6464726573730000000000000000000000000000000000000000000000000000602082015250565b7f4552433732313a207472616e736665722066726f6d20696e636f72726563742060008201527f6f776e6572000000000000000000000000000000000000000000000000000000602082015250565b7f4552433732313a20746f6b656e20616c7265616479206d696e74656400000000600082015250565b7f4552433732313a207472616e7366657220746f20746865207a65726f2061646460008201527f7265737300000000000000000000000000000000000000000000000000000000602082015250565b7f4552433732313a20617070726f766520746f2063616c6c657200000000000000600082015250565b7f4552433732313a206f70657261746f7220717565727920666f72206e6f6e657860008201527f697374656e7420746f6b656e0000000000000000000000000000000000000000602082015250565b7f4552433732313a20617070726f76652063616c6c6572206973206e6f74206f7760008201527f6e6572206e6f7220617070726f76656420666f7220616c6c0000000000000000602082015250565b7f4552433732313a2062616c616e636520717565727920666f7220746865207a6560008201527f726f206164647265737300000000000000000000000000000000000000000000602082015250565b7f4552433732313a206f776e657220717565727920666f72206e6f6e657869737460008201527f656e7420746f6b656e0000000000000000000000000000000000000000000000602082015250565b7f45524337323155524953746f726167653a2055524920736574206f66206e6f6e60008201527f6578697374656e7420746f6b656e000000000000000000000000000000000000602082015250565b7f4552433732313a206d696e7420746f20746865207a65726f2061646472657373600082015250565b7f45524337323155524953746f726167653a2055524920717565727920666f722060008201527f6e6f6e6578697374656e7420746f6b656e000000000000000000000000000000602082015250565b7f4552433732313a20617070726f76656420717565727920666f72206e6f6e657860008201527f697374656e7420746f6b656e0000000000000000000000000000000000000000602082015250565b7f4f776e61626c653a2063616c6c6572206973206e6f7420746865206f776e6572600082015250565b7f4552433732314d657461646174613a2055524920717565727920666f72206e6f60008201527f6e6578697374656e7420746f6b656e0000000000000000000000000000000000602082015250565b7f4552433732313a20617070726f76616c20746f2063757272656e74206f776e6560008201527f7200000000000000000000000000000000000000000000000000000000000000602082015250565b7f4552433732313a207472616e736665722063616c6c6572206973206e6f74206f60008201527f776e6572206e6f7220617070726f766564000000000000000000000000000000602082015250565b6132c581612b42565b81146132d057600080fd5b50565b6132dc81612b54565b81146132e757600080fd5b50565b6132f381612b60565b81146132fe57600080fd5b50565b61330a81612bac565b811461331557600080fd5b5056fea2646970667358221220405ca69dce77c8b09ad274ec613971b964ca19cf50a3bd798ff8683c90ad528064736f6c63430008040033",
  "linkReferences": {},
  "deployedLinkReferences": {}
}